{
  "contractName": "PropertyTransfer",
  "abi": [
    {
      "constant": true,
      "inputs": [],
      "name": "DA",
      "outputs": [
        {
          "name": "",
          "type": "address"
        }
      ],
      "payable": false,
      "stateMutability": "view",
      "type": "function",
      "signature": "0x0c395781"
    },
    {
      "constant": true,
      "inputs": [
        {
          "name": "",
          "type": "address"
        }
      ],
      "name": "individualCountOfPropertyPerOwner",
      "outputs": [
        {
          "name": "",
          "type": "uint256"
        }
      ],
      "payable": false,
      "stateMutability": "view",
      "type": "function",
      "signature": "0x1c963feb"
    },
    {
      "constant": true,
      "inputs": [],
      "name": "totalNoOfProperty",
      "outputs": [
        {
          "name": "",
          "type": "uint256"
        }
      ],
      "payable": false,
      "stateMutability": "view",
      "type": "function",
      "signature": "0x75ecfc1d"
    },
    {
      "constant": true,
      "inputs": [
        {
          "name": "",
          "type": "address"
        },
        {
          "name": "",
          "type": "uint256"
        }
      ],
      "name": "propertiesOwner",
      "outputs": [
        {
          "name": "name",
          "type": "string"
        },
        {
          "name": "isSold",
          "type": "bool"
        }
      ],
      "payable": false,
      "stateMutability": "view",
      "type": "function",
      "signature": "0x8f3c7382"
    },
    {
      "inputs": [],
      "payable": false,
      "stateMutability": "nonpayable",
      "type": "constructor",
      "signature": "constructor"
    },
    {
      "anonymous": false,
      "inputs": [
        {
          "indexed": true,
          "name": "_verifiedOwner",
          "type": "address"
        },
        {
          "indexed": true,
          "name": "_totalNoOfPropertyCurrently",
          "type": "uint256"
        },
        {
          "indexed": false,
          "name": "_nameOfProperty",
          "type": "string"
        },
        {
          "indexed": false,
          "name": "_msg",
          "type": "string"
        }
      ],
      "name": "PropertyAlloted",
      "type": "event",
      "signature": "0x4a5c9f81c01ed8f68a0cf56fd4fb12958b9206ebea24f7820623973ba5457b2a"
    },
    {
      "anonymous": false,
      "inputs": [
        {
          "indexed": true,
          "name": "_from",
          "type": "address"
        },
        {
          "indexed": true,
          "name": "_to",
          "type": "address"
        },
        {
          "indexed": false,
          "name": "_propertyName",
          "type": "string"
        },
        {
          "indexed": false,
          "name": "_msg",
          "type": "string"
        }
      ],
      "name": "PropertyTransferred",
      "type": "event",
      "signature": "0xc414f0e42b09c2b853f504e54993178a1a6d895a5b3ef2c51a152ba812eb02c0"
    },
    {
      "constant": true,
      "inputs": [
        {
          "name": "_ownerAddress",
          "type": "address"
        }
      ],
      "name": "getPropertyCountOfAnyAddress",
      "outputs": [
        {
          "name": "",
          "type": "uint256"
        }
      ],
      "payable": false,
      "stateMutability": "view",
      "type": "function",
      "signature": "0x994febed"
    },
    {
      "constant": false,
      "inputs": [
        {
          "name": "_verifiedOwner",
          "type": "address"
        },
        {
          "name": "_propertyName",
          "type": "string"
        }
      ],
      "name": "allotProperty",
      "outputs": [],
      "payable": false,
      "stateMutability": "nonpayable",
      "type": "function",
      "signature": "0x09c1b385"
    },
    {
      "constant": true,
      "inputs": [
        {
          "name": "_checkOwnerAddress",
          "type": "address"
        },
        {
          "name": "_propertyName",
          "type": "string"
        }
      ],
      "name": "isOwner",
      "outputs": [
        {
          "name": "",
          "type": "uint256"
        }
      ],
      "payable": false,
      "stateMutability": "view",
      "type": "function",
      "signature": "0xcd379964"
    },
    {
      "constant": true,
      "inputs": [
        {
          "name": "a1",
          "type": "string"
        },
        {
          "name": "a2",
          "type": "string"
        }
      ],
      "name": "stringsEqual",
      "outputs": [
        {
          "name": "",
          "type": "bool"
        }
      ],
      "payable": false,
      "stateMutability": "pure",
      "type": "function",
      "signature": "0x13d19950"
    },
    {
      "constant": false,
      "inputs": [
        {
          "name": "_to",
          "type": "address"
        },
        {
          "name": "_propertyName",
          "type": "string"
        }
      ],
      "name": "transferProperty",
      "outputs": [
        {
          "name": "",
          "type": "bool"
        },
        {
          "name": "",
          "type": "uint256"
        }
      ],
      "payable": false,
      "stateMutability": "nonpayable",
      "type": "function",
      "signature": "0x756494ce"
    }
  ],
  "bytecode": "0x608060405234801561001057600080fd5b50336000806101000a81548173ffffffffffffffffffffffffffffffffffffffff021916908373ffffffffffffffffffffffffffffffffffffffff1602179055506113ba806100606000396000f3fe608060405260043610610099576000357c0100000000000000000000000000000000000000000000000000000000900463ffffffff16806309c1b3851461009e5780630c3957811461018657806313d19950146101dd5780631c963feb14610354578063756494ce146103b957806375ecfc1d146104c05780638f3c7382146104eb578063994febed146105ca578063cd3799641461062f575b600080fd5b3480156100aa57600080fd5b50610184600480360360408110156100c157600080fd5b81019080803573ffffffffffffffffffffffffffffffffffffffff169060200190929190803590602001906401000000008111156100fe57600080fd5b82018360208201111561011057600080fd5b8035906020019184600183028401116401000000008311171561013257600080fd5b91908080601f016020809104026020016040519081016040528093929190818152602001838380828437600081840152601f19601f82011690508083019250505050505050919291929050505061072b565b005b34801561019257600080fd5b5061019b61097d565b604051808273ffffffffffffffffffffffffffffffffffffffff1673ffffffffffffffffffffffffffffffffffffffff16815260200191505060405180910390f35b3480156101e957600080fd5b5061033a6004803603604081101561020057600080fd5b810190808035906020019064010000000081111561021d57600080fd5b82018360208201111561022f57600080fd5b8035906020019184600183028401116401000000008311171561025157600080fd5b91908080601f016020809104026020016040519081016040528093929190818152602001838380828437600081840152601f19601f820116905080830192505050505050509192919290803590602001906401000000008111156102b457600080fd5b8201836020820111156102c657600080fd5b803590602001918460018302840111640100000000831117156102e857600080fd5b91908080601f016020809104026020016040519081016040528093929190818152602001838380828437600081840152601f19601f8201169050808301925050505050505091929192905050506109a2565b604051808215151515815260200191505060405180910390f35b34801561036057600080fd5b506103a36004803603602081101561037757600080fd5b81019080803573ffffffffffffffffffffffffffffffffffffffff169060200190929190505050610aa3565b6040518082815260200191505060405180910390f35b3480156103c557600080fd5b5061049f600480360360408110156103dc57600080fd5b81019080803573ffffffffffffffffffffffffffffffffffffffff1690602001909291908035906020019064010000000081111561041957600080fd5b82018360208201111561042b57600080fd5b8035906020019184600183028401116401000000008311171561044d57600080fd5b91908080601f016020809104026020016040519081016040528093929190818152602001838380828437600081840152601f19601f820116905080830192505050505050509192919290505050610abb565b60405180831515151581526020018281526020019250505060405180910390f35b3480156104cc57600080fd5b506104d5610f2c565b6040518082815260200191505060405180910390f35b3480156104f757600080fd5b506105446004803603604081101561050e57600080fd5b81019080803573ffffffffffffffffffffffffffffffffffffffff16906020019092919080359060200190929190505050610f32565b604051808060200183151515158152602001828103825284818151815260200191508051906020019080838360005b8381101561058e578082015181840152602081019050610573565b50505050905090810190601f1680156105bb5780820380516001836020036101000a031916815260200191505b50935050505060405180910390f35b3480156105d657600080fd5b50610619600480360360208110156105ed57600080fd5b81019080803573ffffffffffffffffffffffffffffffffffffffff169060200190929190505050611008565b6040518082815260200191505060405180910390f35b34801561063b57600080fd5b506107156004803603604081101561065257600080fd5b81019080803573ffffffffffffffffffffffffffffffffffffffff1690602001909291908035906020019064010000000081111561068f57600080fd5b8201836020820111156106a157600080fd5b803590602001918460018302840111640100000000831117156106c357600080fd5b91908080601f016020809104026020016040519081016040528093929190818152602001838380828437600081840152601f19601f8201169050808301925050505050505091929192905050506110ea565b6040518082815260200191505060405180910390f35b6000809054906101000a900473ffffffffffffffffffffffffffffffffffffffff1673ffffffffffffffffffffffffffffffffffffffff163373ffffffffffffffffffffffffffffffffffffffff1614151561078657600080fd5b80600260008473ffffffffffffffffffffffffffffffffffffffff1673ffffffffffffffffffffffffffffffffffffffff1681526020019081526020016000206000600360008673ffffffffffffffffffffffffffffffffffffffff1673ffffffffffffffffffffffffffffffffffffffff1681526020019081526020016000206000815480929190600101919050558152602001908152602001600020600001908051906020019061083a9291906112e9565b50600160008154809291906001019190505550600360008373ffffffffffffffffffffffffffffffffffffffff1673ffffffffffffffffffffffffffffffffffffffff168152602001908152602001600020548273ffffffffffffffffffffffffffffffffffffffff167f4a5c9f81c01ed8f68a0cf56fd4fb12958b9206ebea24f7820623973ba5457b2a83604051808060200180602001838103835284818151815260200191508051906020019080838360005b8381101561090a5780820151818401526020810190506108ef565b50505050905090810190601f1680156109375780820380516001836020036101000a031916815260200191505b508381038252601e8152602001807f70726f706572747920616c6c6f74746564207375636365737366756c6c790000815250602001935050505060405180910390a35050565b6000809054906101000a900473ffffffffffffffffffffffffffffffffffffffff1681565b6000816040516020018082805190602001908083835b6020831015156109dd57805182526020820191506020810190506020830392506109b8565b6001836020036101000a03801982511681845116808217855250505050505090500191505060405160208183030381529060405280519060200120836040516020018082805190602001908083835b602083101515610a515780518252602082019150602081019050602083039250610a2c565b6001836020036101000a0380198251168184511680821785525050505050509050019150506040516020818303038152906040528051906020012014610a98576000610a9b565b60015b905092915050565b60036020528060005260406000206000915090505481565b6000806000610aca33856110ea565b90506000633b9ac9ff8214158015610b46575060001515600260003373ffffffffffffffffffffffffffffffffffffffff1673ffffffffffffffffffffffffffffffffffffffff168152602001908152602001600020600084815260200190815260200160002060010160009054906101000a900460ff161515145b15610e15576001600260003373ffffffffffffffffffffffffffffffffffffffff1673ffffffffffffffffffffffffffffffffffffffff168152602001908152602001600020600084815260200190815260200160002060010160006101000a81548160ff0219169083151502179055506040805190810160405280600481526020017f536f6c6400000000000000000000000000000000000000000000000000000000815250600260003373ffffffffffffffffffffffffffffffffffffffff1673ffffffffffffffffffffffffffffffffffffffff16815260200190815260200160002060008481526020019081526020016000206000019080519060200190610c539291906112e9565b5084600260008873ffffffffffffffffffffffffffffffffffffffff1673ffffffffffffffffffffffffffffffffffffffff1681526020019081526020016000206000600360008a73ffffffffffffffffffffffffffffffffffffffff1673ffffffffffffffffffffffffffffffffffffffff16815260200190815260200160002060008154809291906001019190505581526020019081526020016000206000019080519060200190610d089291906112e9565b50600190508573ffffffffffffffffffffffffffffffffffffffff163373ffffffffffffffffffffffffffffffffffffffff167fc414f0e42b09c2b853f504e54993178a1a6d895a5b3ef2c51a152ba812eb02c087604051808060200180602001838103835284818151815260200191508051906020019080838360005b83811015610da1578082015181840152602081019050610d86565b50505050905090810190601f168015610dce5780820380516001836020036101000a031916815260200191505b50838103825260178152602001807f4f776e657220686173206265656e206368616e6765642e000000000000000000815250602001935050505060405180910390a3610f1d565b600090508573ffffffffffffffffffffffffffffffffffffffff163373ffffffffffffffffffffffffffffffffffffffff167fc414f0e42b09c2b853f504e54993178a1a6d895a5b3ef2c51a152ba812eb02c087604051808060200180602001838103835284818151815260200191508051906020019080838360005b83811015610ead578082015181840152602081019050610e92565b50505050905090810190601f168015610eda5780820380516001836020036101000a031916815260200191505b508381038252601f8152602001807f4f776e657220646f65736e2774206f776e207468652070726f70657274792e00815250602001935050505060405180910390a35b80829350935050509250929050565b60015481565b600260205281600052604060002060205280600052604060002060009150915050806000018054600181600116156101000203166002900480601f016020809104026020016040519081016040528092919081815260200182805460018160011615610100020316600290048015610feb5780601f10610fc057610100808354040283529160200191610feb565b820191906000526020600020905b815481529060010190602001808311610fce57829003601f168201915b5050505050908060010160009054906101000a900460ff16905082565b6000806000905060008090505b600360008573ffffffffffffffffffffffffffffffffffffffff1673ffffffffffffffffffffffffffffffffffffffff168152602001908152602001600020548110156110e05760011515600260008673ffffffffffffffffffffffffffffffffffffffff1673ffffffffffffffffffffffffffffffffffffffff168152602001908152602001600020600083815260200190815260200160002060010160009054906101000a900460ff1615151415156110d35781806001019250505b8080600101915050611015565b5080915050919050565b60008060008091505b600360008673ffffffffffffffffffffffffffffffffffffffff1673ffffffffffffffffffffffffffffffffffffffff168152602001908152602001600020548210156112c25760011515600260008773ffffffffffffffffffffffffffffffffffffffff1673ffffffffffffffffffffffffffffffffffffffff168152602001908152602001600020600084815260200190815260200160002060010160009054906101000a900460ff16151514156111ac576112c2565b6112a1600260008773ffffffffffffffffffffffffffffffffffffffff1673ffffffffffffffffffffffffffffffffffffffff16815260200190815260200160002060008481526020019081526020016000206000018054600181600116156101000203166002900480601f0160208091040260200160405190810160405280929190818152602001828054600181600116156101000203166002900480156112965780601f1061126b57610100808354040283529160200191611296565b820191906000526020600020905b81548152906001019060200180831161127957829003601f168201915b5050505050856109a2565b90506001151581151514156112b5576112c2565b81806001019250506110f3565b6001151581151514156112d95781925050506112e3565b633b9ac9ff925050505b92915050565b828054600181600116156101000203166002900490600052602060002090601f016020900481019282601f1061132a57805160ff1916838001178555611358565b82800160010185558215611358579182015b8281111561135757825182559160200191906001019061133c565b5b5090506113659190611369565b5090565b61138b91905b8082111561138757600081600090555060010161136f565b5090565b9056fea165627a7a723058203b1881e98207b1f972f2a060966e999ac7c1853a62dca382dcfb1d4cd73b91040029",
  "source": "pragma solidity 0.5.0;\r\n\r\ncontract PropertyTransfer {\r\n\r\n    address public DA;\r\n    uint256 public totalNoOfProperty; \r\n    \r\n    constructor ()public {\r\n        DA = msg.sender; \r\n    }\r\n    \r\n    modifier onlyOwner(){\r\n        require(msg.sender == DA);\r\n        _;\r\n    }\r\n    \r\n    struct Property{\r\n        string name;\r\n        bool isSold;\r\n    }\r\n    \r\n    mapping(address => mapping(uint256=>Property)) public  propertiesOwner; \r\n    mapping(address => uint256) public individualCountOfPropertyPerOwner;\r\n    \r\n    event PropertyAlloted(address indexed _verifiedOwner, uint256 indexed  _totalNoOfPropertyCurrently, string _nameOfProperty, string _msg);\r\n    event PropertyTransferred(address indexed _from, address indexed _to, string _propertyName, string _msg);\r\n    \r\n    function getPropertyCountOfAnyAddress(address _ownerAddress) public view returns (uint256){\r\n        uint count=0;\r\n        for(uint i =0; i<individualCountOfPropertyPerOwner[_ownerAddress];i++){\r\n            if(propertiesOwner[_ownerAddress][i].isSold != true)\r\n            count++;\r\n        }\r\n        return count;\r\n    }\r\n    \r\n    function allotProperty(address _verifiedOwner, string memory _propertyName) public onlyOwner\r\n    {\r\n        propertiesOwner[_verifiedOwner][individualCountOfPropertyPerOwner[_verifiedOwner]++].name = _propertyName;\r\n        totalNoOfProperty++;\r\n        emit PropertyAlloted(_verifiedOwner,individualCountOfPropertyPerOwner[_verifiedOwner], _propertyName, \"property allotted successfully\");\r\n    }\r\n    \r\n    /// check whether the owner have the said property or not. if yes, return the index\r\n    function isOwner(address _checkOwnerAddress, string memory _propertyName) public view returns (uint){\r\n        uint i ;\r\n        bool flag ;\r\n        for(i=0 ; i<individualCountOfPropertyPerOwner[_checkOwnerAddress]; i++){\r\n            if(propertiesOwner[_checkOwnerAddress][i].isSold == true){\r\n                break;\r\n            }\r\n         flag = stringsEqual(propertiesOwner[_checkOwnerAddress][i].name,_propertyName);\r\n            if(flag == true){\r\n                break;\r\n            }\r\n        }\r\n        if(flag == true){\r\n            return i;\r\n        }\r\n        else {\r\n            return 999999999;\r\n        }\r\n        \r\n    }\r\n    \r\n    function stringsEqual (string memory a1, string memory a2)public pure returns (bool){\r\n            return keccak256(abi.encodePacked(a1)) == keccak256(abi.encodePacked(a2))? true:false;\r\n    }\r\n    \r\n   \r\n    function transferProperty (address _to, string memory _propertyName) public \r\n      returns (bool ,  uint )\r\n    {\r\n        uint256 checkOwner = isOwner(msg.sender, _propertyName);\r\n        bool flag;\r\n\r\n        if(checkOwner != 999999999 && propertiesOwner[msg.sender][checkOwner].isSold == false){\r\n            /// step 1 . remove the property from the current owner and decrase the counter.\r\n            /// step 2 . assign the property to the new owner and increase the counter\r\n            propertiesOwner[msg.sender][checkOwner].isSold = true;\r\n            propertiesOwner[msg.sender][checkOwner].name = \"Sold\";// really nice finding. we can't put empty string\r\n            propertiesOwner[_to][individualCountOfPropertyPerOwner[_to]++].name = _propertyName;\r\n            flag = true;\r\n            emit PropertyTransferred(msg.sender , _to, _propertyName, \"Owner has been changed.\" );\r\n        }\r\n        else {\r\n            flag = false;\r\n            emit PropertyTransferred(msg.sender , _to, _propertyName, \"Owner doesn't own the property.\" );\r\n        }\r\n        return (flag, checkOwner);\r\n    }\r\n\r\n}\r\n",
  "sourcePath": "C:/Users/Shail Shah/trial/propertytransfer/src/contracts/PropertyTransfer.sol",
  "compiler": {
    "name": "solc",
    "version": "0.5.0+commit.1d4f565a.Emscripten.clang"
  },
  "schemaVersion": "3.0.2",
  "updatedAt": "2020-11-29T09:49:06.282Z",
  "devdoc": {
    "methods": {}
  },
  "userdoc": {
    "methods": {
      "isOwner(address,string)": {
        "notice": "check whether the owner have the said property or not. if yes, return the index"
      }
    }
  }
}